:0400000007EF00F016
:0A000800468258ED06F0A8EF08F05C
:1008000000090807060504030201010203030900A9
:10081000F70E8A6E81BE16D0070E3A6E7D0EE82E58
:10082000FED73A2EFCD700F081BE4AD0010E3B6EB7
:1008300017D020EE01F03850D9263950DA223BC0CB
:10084000DFFF120081BC12D0070E3A6E7D0EE82E3B
:10085000FED73A2EFCD700F081BC32D0040EE7D789
:1008600038C0D9FF39C0DAFFDF80E3D781BA0CD0B6
:10087000070E3A6E7D0EE82EFED73A2EFCD700F01A
:1008800081BA1ED0070ED3D781B81AD0070E3A6EA0
:100890007D0EE82EFED73A2EFCD700F081B810D09E
:1008A0000D0E3B6E38C0D9FF39C0DAFFDF8020EE75
:1008B00001F03850D9263950DA223BC0DFFF120050
:1008C000FB0E8A6E81BE14D0070E3A6E7D0EE82EA6
:1008D000FED73A2EFCD700F0020E3B6E15D020EE6C
:1008E00001F03850D9263950DA223BC0DFFF120020
:1008F00081BC10D0070E3A6E7D0EE82EFED73A2E40
:10090000FCD700F0050EE9D738C0D9FF39C0DAFFAF
:10091000DF80E5D781BA0AD0070E3A6E7D0EE82E49
:10092000FED73A2EFCD700F0080ED7D781B818D0E2
:10093000070E3A6E7D0EE82EFED73A2EFCD700F059
:10094000000E3B6E38C0D9FF39C0DAFFDF8020EEE1
:1009500001F03850D9263950DA223BC0DFFF1200AF
:10096000FD0E8A6E81BE14D0070E3A6E7D0EE82E03
:10097000FED73A2EFCD700F0030E3B6E15D020EECA
:1009800001F03850D9263950DA223BC0DFFF12007F
:1009900081BC10D0070E3A6E7D0EE82EFED73A2E9F
:1009A000FCD700F0060EE9D738C0D9FF39C0DAFF0E
:1009B000DF80E5D781BA0AD0070E3A6E7D0EE82EA9
:1009C000FED73A2EFCD700F0090ED7D781B818D041
:1009D000070E3A6E7D0EE82EFED73A2EFCD700F0B9
:1009E0000F0E3B6E38C0D9FF39C0DAFFDF8020EE32
:1009F00001F03850D9263950DA223BC0DFFF12000F
:100A0000FE0E8A6E81BE18D0070E3A6E7D0EE82E5D
:100A1000FED73A2EFCD700F00B0E3B6E38C0D9FF44
:100A200039C0DAFFDF8020EE01F03850D926395086
:100A3000DA223BC0DFFF120081BC18D0070E3A6EED
:100A40007D0EE82EFED73A2EFCD700F00C0E3B6E42
:100A500038C0D9FF39C0DAFFDF8020EE01F038500E
:100A6000D9263950DA223BC0DFFF120081BA18D0F4
:100A7000070E3A6E7D0EE82EFED73A2EFCD700F018
:100A80000A0E3B6E38C0D9FF39C0DAFFDF8020EE96
:100A900001F03850D9263950DA223BC0DFFF12006E
:100AA00081B818D0070E3A6E7D0EE82EFED73A2E8A
:100AB000FCD700F00E0E3B6E38C0D9FF39C0DAFF0C
:100AC000DF8020EE01F03850D9263950DA223BC0C1
:100AD000DFFF120038C0D9FF39C0DAFFDF9020EE07
:100AE00001F03850D9263950DA22100EDF6E12008C
:100AF000000E0001DD6F000EDE6F000EDF6F000ED6
:100B0000DC6F1FEC09F093EC09F084EC09F0A2EC27
:100B100009F0F28CF28ED10E386E000E396E33EC85
:100B200009F042EC08F0010E9EEC09F0E00E386E80
:100B3000000E396E08EC04F00001E0A1A8D00B0E05
:100B4000E119D8B49FD00C0EE119D8B49BD00F0E88
:100B5000E119D8A450D0DD51D8A41ED0D10E386EE2
:100B6000000E396EDEC03AF0DF0E3B6E000E3C6EBA
:100B7000AEEC07F00009D8B407EF00F00001DF5138
:100B800045EC09F00009D8B407EF00F0E8EC08F0F4
:100B9000010E0001DD6F28D0DD05D8A425D0DF05CA
:100BA0000A0DF3CFDCF0D10E396E000E3A6EDEC0C6
:100BB0003BF0DCC03CF000EC08F00009D8B407EFD3
:100BC00000F0E8EC08F00001DF51E8EC06F09AECE8
:100BD00009F01550010D010EF324D96E000EF4201A
:100BE000DA6EDFC0DFFF152AD10E386E000E396EC7
:100BF00033EC09F022D00E0EE119D8B443D00D0E1B
:100C0000E119D8A41DD0DD05D8A411D0DF050A0D47
:100C1000F3CFDCF0DEC03BF0D10E3C6E000E3D6E3B
:100C2000DC51CBEC08F0E8EC08F007EF00F0D10E57
:100C3000386E000E396E33EC09F0000E000121D041
:100C4000000EDB6F0BD06FEC09F0340E406EF20E2D
:100C5000E82EFED7402EFCD70001DB2BE151DB5DF7
:100C6000D8A0F1D7DE51010DD10EF324D96E000EBC
:100C7000F420DA6EE1C0DFFFDE2B0A0EDE6502D063
:100C8000000EDE6F63EC09F00009D8A4FBD720AE9C
:100C90004DD7209E54EC09F0D10E386E000E396EFF
:100CA00033EC09F0000E0001DE6F000EDD6F3ED761
:100CB0000600FACF25F0FBCF26F0E9CF27F0EACFE8
:100CC00028F0E1CF29F0E2CF2AF0D9CF2BF0DACF0C
:100CD0002CF0F3CF2DF0F4CF2EF0F6CF2FF0F7CF8E
:100CE00030F0F8CF31F0F5CF32F046C033F047C0E6
:100CF00034F048C035F049C036F0F2A008D0F29088
:100D0000209E000E1D6ECD808150D8A400F09EA0C4
:100D10000DD01D2A000ECF6E000ECE6E0A0E1D18CD
:100D2000D8A403D0208ECD90208A9E90F2A42AD001
:100D3000F29475EC08F0000ED76E000ED66E0150DE
:100D40004BEC07F01506000E376E18D03750236EA7
:100D5000246A010E2326000E2422010E2324D96EBC
:100D6000000E2420DA6E3750010D010EF324E16EDF
:100D7000000EF420E26EDFCFE7FF372A1550375C14
:100D8000D8A0E4D736C049F035C048F034C047F0A9
:100D900033C046F032C0F5FF31C0F8FF30C0F7FF76
:100DA0002FC0F6FF2EC0F4FF2DC0F3FF2CC0DAFFDA
:100DB0002BC0D9FF2AC0E2FF29C0E1FF28C0EAFF0B
:100DC00027C0E9FF26C0FBFF25C0FAFF46921100AD
:100DD000386E26D08B8012008D8412008D82120016
:100DE0008D801200898A120089881200898612007B
:100DF0008C8E12008C8C12008C8A12008C8812004F
:100E00008B8E12008B8C12008C8412008C86120048
:100E10008B8212008B8412008C8012008C82120054
:100E20003850010AD8B4D6D7030AD8B4D5D7010AA6
:100E3000D8B4D4D7070AD8B4D3D7010AD8B4D2D7F4
:100E4000030AD8B4D1D7010AD8B4D0D70F0AD8B47E
:100E5000CFD7010AD8B4CED7030AD8B4CDD7010A68
:100E6000D8B4CCD7070AD8B4CBD7010AD8B4CAD7DC
:100E7000020AD8B4C9D71F0AD8B4C8D7020AD8B44E
:100E8000C7D7010AD8B4C6D7070AD8B4C5D7010A4C
:100E9000D8A41200C3D7216E26D08B9012008D9457
:100EA00012008D9212008D901200899A120089987A
:100EB0001200899612008C9E12008C9C12008C9A53
:100EC00012008C9812008B9E12008B9C12008C9446
:100ED00012008C9612008B9212008B9412008C9050
:100EE00012008C9212002150010AD8B4D6D7030AFE
:100EF000D8B4D5D7010AD8B4D4D7070AD8B4D3D731
:100F0000010AD8B4D2D7030AD8B4D1D7010AD8B4C9
:100F1000D0D70F0AD8B4CFD7010AD8B4CED7030A96
:100F2000D8B4CDD7010AD8B4CCD7070AD8B4CBD718
:100F3000010AD8B4CAD7020AD8B4C9D71F0AD8B48C
:100F4000C8D7020AD8B4C7D7010AD8B4C6D7070A87
:100F5000D8B4C5D7010AD8A41200C3D7000E3F6E7B
:100F60003BC0D9FF3CC0DAFF000EDF6E030E3A64CF
:100F700002D03F501200030E3A18D8A41ED038C039
:100F8000D9FF39C0DAFF020EDE18D8A416D020EE41
:100F900001F03850D9263950DA22050EDE18D8A4CF
:100FA0000CD020EE02F03850D9263950DA22060E45
:100FB000DE18D8A402D03F501200000E3E6E18D0AA
:100FC0003E50010DF3503824D96EF4503920DA6EBA
:100FD000DF503D6E3BC0D9FF3CC0DAFFDF500A0D49
:100FE000F3503D243BC0D9FF3CC0DAFFDF6E3E2A00
:100FF0003A503E5CD8A0E4D7010E3F6E3F5012003D
:10100000000E3F6E3C508CEC09F03D6E3D503B189D
:10101000D8B404D019D0000E3F6E32D0000E3E6E10
:1010200016D039C0D9FF3AC0DAFF3C2A3C508CECCC
:1010300009F00001CB6FDE50CB19D8A405D0394A96
:101040003A2A010E3F6E02D01F94E5D73E2A3E5049
:101050000001CA6FCB6BFF0ECC6FFF0ECD6F3B5004
:10106000CE6FCF6BCC51CE27CD51CF23CA51CE5DA1
:10107000CF51800AD06FCB51800AD059D8B0D1D788
:101080003F5012008980020E396E040E386EBA0E7F
:10109000E82EFED7382EFCD7392EFAD700D089900B
:1010A0001A0E386EF80EE82EFED7382EFCD700D078
:1010B00089801A0E386EF80EE82EFED7382EFCD72F
:1010C00000D089901A0E386EF80EE82EFED7382E12
:1010D000FCD700D089801A0E386EF80EE82EFED7A5
:1010E000382EFCD700D0899012008980020E226E23
:1010F000040E216EBA0EE82EFED7212EFCD7222E2A
:10110000FAD700D089901A0E216EF80EE82EFED77D
:10111000212EFCD700D089801A0E216EF80EE82E01
:10112000FED7212EFCD700D089901A0E216EF80E22
:10113000E82EFED7212EFCD700D089801A0E216E12
:10114000F80EE82EFED7212EFCD700D08990120091
:101150004A0EF66E130EF76E000EF86E00EE41F0BA
:1011600010EE05F00900F5CFEEFFE550E150FAE191
:1011700000EE60F06A0EEE6AE806FDE100EE01F0B6
:10118000200EEE6AE806FDE146904692000EF86EEB
:10119000000178EF05F03E6E3BC038F03E5004ECA5
:1011A00009F0000E3F6E0FD03E2A3F50010DF35064
:1011B0003C24D96EF4503D20DA6EDF50386E3E503C
:1011C00004EC09F03F2A3F503B5CD8A01200ECD75A
:1011D00089801A0E386EF80EE82EFED7382EFCD70E
:1011E00000D089900D0E386EFC0EE82EFED7382EFA
:1011F000FCD789801A0E386EF80EE82EFED7382EEE
:10120000FCD700D089901200396EA6B2FED739C043
:10121000A9FF38C0A8FFA69EA69CA684000EF2BE19
:10122000010E3A6EF29E550EA76EAA0EA76EA6820A
:101230003AB002D0F29E01D0F28EA69412000F0EA8
:10124000C16E070EB46E9290000E956E000E946EF5
:10125000000E966E000E926E000E8C6E000E8B6E5F
:10126000000E8D6E1200000E3A6E090E3A6401D027
:1012700012003A50010DF3503824D96EF450392041
:10128000DA6E000EDF6E3A2AF0D7396E000E386E35
:101290003950D8B407D0160E396002D0010E01D0F3
:1012A000000E386E385012008980020E396E040E1E
:1012B000386EBA0EE82EFED7382EFCD7392EFAD764
:1012C00000D0899012003C0E386E000E396E08EC8A
:1012D00004F03CA002D0010E1200000E1200898022
:1012E0001A0E386EF80EE82EFED7382EFCD700D036
:1012F00089901200D59ED59CD59AF28A000ED76EA1
:10130000000ED66ED5961200CD88CD8A000ECF6E17
:10131000000ECE6E9D801200386E38C0A9FFA69ECA
:10132000A680A8501200F00E936EF00E8A6EF19E09
:10133000F2861200010E9EEC09F01200010E386ECA
:0F134000D58E12007AEC09F012000800080004A4
:020000040020DA
:08000000FFFFFFFFFFFFFFFF00
:020000040030CA
:0E00000000081F1EFF8081FF0FC00FE00F40A1
:00000001FF
