:0400000007EF00F016
:0A000800428231ED06F027EF07F009
:1008000000090807060504030201010203030900A9
:100810007F0E8A6E81B616D0070E156E7D0EE82EFD
:10082000FED7152EFCD700F081B64AD0010E166E09
:1008300017D020EE01F01350D9261450DA2216C03A
:10084000DFFF120081B412D0070E156E7D0EE82E68
:10085000FED7152EFCD700F081B432D0020EE7D7B8
:1008600013C0D9FF14C0DAFFDF80E3D781B20CD008
:10087000070E156E7D0EE82EFED7152EFCD700F064
:1008800081B21ED0030ED3D781B01AD0070E156ED9
:100890007D0EE82EFED7152EFCD700F081B010D0CB
:1008A0000A0E166E13C0D9FF14C0DAFFDF8020EEE7
:1008B00001F01350D9261450DA2216C0DFFF1200BF
:1008C000BF0E8A6E81B614D0070E156E7D0EE82E0F
:1008D000FED7152EFCD700F0040E166E15D020EEB4
:1008E00001F01350D9261450DA2216C0DFFF12008F
:1008F00081B410D0070E156E7D0EE82EFED7152E92
:10090000FCD700F0050EE9D713C0D9FF14C0DAFFF9
:10091000DF80E5D781B20AD0070E156E7D0EE82E76
:10092000FED7152EFCD700F0060ED7D781B018D011
:10093000070E156E7D0EE82EFED7152EFCD700F0A3
:100940000B0E166E13C0D9FF14C0DAFFDF8020EE45
:1009500001F01350D9261450DA2216C0DFFF12001E
:10096000DF0E8A6E81B614D0070E156E7D0EE82E4E
:10097000FED7152EFCD700F0070E166E15D020EE10
:1009800001F01350D9261450DA2216C0DFFF1200EE
:1009900081B410D0070E156E7D0EE82EFED7152EF1
:1009A000FCD700F0080EE9D713C0D9FF14C0DAFF56
:1009B000DF80E5D781B20AD0070E156E7D0EE82ED6
:1009C000FED7152EFCD700F0090ED7D781B018D06E
:1009D000070E156E7D0EE82EFED7152EFCD700F003
:1009E0000C0E166E13C0D9FF14C0DAFFDF8020EEA4
:1009F00001F01350D9261450DA2216C0DFFF12007E
:100A0000EF0E8A6E81B618D0070E156E7D0EE82E99
:100A1000FED7152EFCD700F00D0E166E13C0D9FFB1
:100A200014C0DAFFDF8020EE01F01350D9261450F5
:100A3000DA2216C0DFFF120081B418D0070E156E3F
:100A40007D0EE82EFED7152EFCD700F0000E166E98
:100A500013C0D9FF14C0DAFFDF8020EE01F013507D
:100A6000D9261450DA2216C0DFFF120081B218D046
:100A7000070E156E7D0EE82EFED7152EFCD700F062
:100A80000F0E166E13C0D9FF14C0DAFFDF8020EE00
:100A900001F01350D9261450DA2216C0DFFF1200DD
:100AA00081B018D0070E156E7D0EE82EFED7152EDC
:100AB000FCD700F00E0E166E13C0D9FF14C0DAFF7B
:100AC000DF8020EE01F01350D9261450DA2216C030
:100AD000DFFF120013C0D9FF14C0DAFFDF9020EE51
:100AE00001F01350D9261450DA22100EDF6E1200D6
:100AF000000E0001D06F000ED16F000ED26F000EFD
:100B0000CF6FCFEC07F0C0EC07F0B8EC07F0F28C39
:100B1000F28EC50E136E000E146E97EC07F0010EE8
:100B2000136E000E69EC07F0010E136E010E69ECF6
:100B300007F0000EC6EC07F00001C46FD30E136E71
:100B4000000E146E08EC04F00001D3A1F7D70B0ED1
:100B5000D419D8B4F3D70C0ED419D8B4EFD70F0EDC
:100B6000D419D8A443D0D051D8A41CD0C50E136E2C
:100B7000000E146ED1C015F0D20E166E000E176E58
:100B800095EC06F00009D8B407EF00F00001D2514F
:100B9000A9EC07F00009D8B407EF00F0010E00013E
:100BA000D06F1DD0D005D8A41AD0D25182EC07F056
:100BB0000009D8B407EF00F00001D2050A0DF3CF09
:100BC000CFF0C50E146E000E156ED1C016F0CFC05A
:100BD00017F0E7EC06F00009D8B407EF00F0C50EF7
:100BE000136E000E146E97EC07F027D00E0ED4197A
:100BF000D8B4A4D70D0ED419D8A422D0D005D8A427
:100C000016D0D25182EC07F00009D8A410D0000110
:100C1000D2050A0DF3CFCFF0D1C016F0C50E176E76
:100C2000000E186ECF514CEC07F007EF00F0C50E28
:100C3000136E000E146E97EC07F0000E00010FD03B
:100C4000D151010DC50EF324D96E000EF420DA6ED9
:100C5000D4C0DFFFD12B0A0ED16570D7000ED16F43
:100C60006DD70600FACF01F0FBCF02F0E9CF03F019
:100C7000EACF04F0E1CF05F0E2CF06F0D9CF07F0DC
:100C8000DACF08F0F3CF09F0F4CF0AF0F6CF0BF08B
:100C9000F7CF0CF0F8CF0DF0F5CF0EF042C00FF00B
:100CA00043C010F044C011F045C012F0F2A008D0CB
:100CB000F2903C9E000E396ECD808150D8A400F099
:100CC0009EA00DD0392A000ECF6E000ECE6E0A0EF9
:100CD0003918D8A403D03C8ECD903C8A9E9012C087
:100CE00045F011C044F010C043F00FC042F00EC0F8
:100CF000F5FF0DC0F8FF0CC0F7FF0BC0F6FF0AC0F0
:100D0000F4FF09C0F3FF08C0DAFF07C0D9FF06C02F
:100D1000E2FF05C0E1FF04C0EAFF03C0E9FF02C033
:100D2000FBFF01C0FAFF42921100000E1A6E16C0BE
:100D3000D9FF17C0DAFF000EDF6E030E156402D074
:100D40001A501200030E1518D8A41ED013C0D9FFD4
:100D500014C0DAFF020EDE18D8A416D020EE01F07F
:100D60001350D9261450DA22050EDE18D8A40CD060
:100D700020EE02F01350D9261450DA22060EDE18A7
:100D8000D8A402D01A501200000E196E18D01950B3
:100D9000010DF3501324D96EF4501420DA6EDF5095
:100DA000186E16C0D9FF17C0DAFFDF500A0DF350D6
:100DB000182416C0D9FF17C0DAFFDF6E192A1550A4
:100DC000195CD8A0E4D7010E1A6E1A501200000E5A
:100DD000216E1750C6EC07F01F6E1F501618D8B4BE
:100DE00004D018D0000E216E30D0000E206E15D029
:100DF00014C0D9FF15C0DAFF172A1750C6EC07F048
:100E0000196EDE501918D8A405D0144A152A010EFF
:100E1000216E02D03B94E6D7202A2050186E196A22
:100E2000FF0E1A6EFF0E1B6E16501C6E1D6A1A50B6
:100E30001C261B501D2218501C5C1D50800A1E6E63
:100E40001950800A1E58D8B0D3D721501200980EDE
:100E5000F66E0F0EF76E000EF86E00EE3DF010EE1F
:100E600005F00900F5CFEEFFE550E150FAE100EEA4
:100E700060F0640EEE6AE806FDE100EE22F01B0E63
:100E8000EE6AE806FDE142904292000EF86E080E0E
:100E9000F76E000178EF05F0196E16C013F01950C7
:100EA00069EC07F0000E1A6E0FD0192A1A50010DC6
:100EB000F3501724D96EF4501820DA6EDF50136EF9
:100EC000195069EC07F01A2A1A50165CD8A01200C3
:100ED000ECD7146EA6B2FED714C0A9FF13C0A8FFAA
:100EE000A684000EF2BE010E156EF29E550EA76E80
:100EF000AA0EA76EA68215B002D0F29E01D0F28E85
:100F0000A6941200156E000E166E15040A0DF3CF8E
:100F100017F01750C6EC07F0146E1750C6EC07F028
:100F20000009D8B402D0010E166E16501200000E41
:100F3000156E090E156401D012001550010DF35005
:100F40001324D96EF4501420DA6E000EDF6E152AC9
:100F5000F0D7146E000E136E1450D8B407D0160ECE
:100F6000146002D0010E01D0000E136E1350120057
:100F7000CD88CD8A000ECF6E000ECE6E9D80120001
:100F80000F0E936E8A68F19EF2861200136E13C0E4
:0D0F9000A9FFA680A8501200080008000468
:020F9E0012003F
:020000040020DA
:08000000FFFFFFFFFFFFFFFF00
:020000040030CA
:0E00000000081F1EFF8081FF0FC00FE00F40A1
:00000001FF
