:0400000007EF00F016
:0A00080042823BED06F031EF07F0F5
:1008000000090807060504030201010203030900A9
:10081000F70E8A6E81BE16D0070E156E7D0EE82E7D
:10082000FED7152EFCD700F081BE4AD0010E166E01
:1008300017D020EE01F01350D9261450DA2216C03A
:10084000DFFF120081BC12D0070E156E7D0EE82E60
:10085000FED7152EFCD700F081BC32D0040EE7D7AE
:1008600013C0D9FF14C0DAFFDF80E3D781BA0CD000
:10087000070E156E7D0EE82EFED7152EFCD700F064
:1008800081BA1ED0070ED3D781B81AD0070E156EC5
:100890007D0EE82EFED7152EFCD700F081B810D0C3
:1008A0000D0E166E13C0D9FF14C0DAFFDF8020EEE4
:1008B00001F01350D9261450DA2216C0DFFF1200BF
:1008C000FB0E8A6E81BE14D0070E156E7D0EE82ECB
:1008D000FED7152EFCD700F0020E166E15D020EEB6
:1008E00001F01350D9261450DA2216C0DFFF12008F
:1008F00081BC10D0070E156E7D0EE82EFED7152E8A
:10090000FCD700F0050EE9D713C0D9FF14C0DAFFF9
:10091000DF80E5D781BA0AD0070E156E7D0EE82E6E
:10092000FED7152EFCD700F0080ED7D781B818D007
:10093000070E156E7D0EE82EFED7152EFCD700F0A3
:10094000000E166E13C0D9FF14C0DAFFDF8020EE50
:1009500001F01350D9261450DA2216C0DFFF12001E
:10096000FD0E8A6E81BE14D0070E156E7D0EE82E28
:10097000FED7152EFCD700F0030E166E15D020EE14
:1009800001F01350D9261450DA2216C0DFFF1200EE
:1009900081BC10D0070E156E7D0EE82EFED7152EE9
:1009A000FCD700F0060EE9D713C0D9FF14C0DAFF58
:1009B000DF80E5D781BA0AD0070E156E7D0EE82ECE
:1009C000FED7152EFCD700F0090ED7D781B818D066
:1009D000070E156E7D0EE82EFED7152EFCD700F003
:1009E0000F0E166E13C0D9FF14C0DAFFDF8020EEA1
:1009F00001F01350D9261450DA2216C0DFFF12007E
:100A0000FE0E8A6E81BE18D0070E156E7D0EE82E82
:100A1000FED7152EFCD700F00B0E166E13C0D9FFB3
:100A200014C0DAFFDF8020EE01F01350D9261450F5
:100A3000DA2216C0DFFF120081BC18D0070E156E37
:100A40007D0EE82EFED7152EFCD700F00C0E166E8C
:100A500013C0D9FF14C0DAFFDF8020EE01F013507D
:100A6000D9261450DA2216C0DFFF120081BA18D03E
:100A7000070E156E7D0EE82EFED7152EFCD700F062
:100A80000A0E166E13C0D9FF14C0DAFFDF8020EE05
:100A900001F01350D9261450DA2216C0DFFF1200DD
:100AA00081B818D0070E156E7D0EE82EFED7152ED4
:100AB000FCD700F00E0E166E13C0D9FF14C0DAFF7B
:100AC000DF8020EE01F01350D9261450DA2216C030
:100AD000DFFF120013C0D9FF14C0DAFFDF9020EE51
:100AE00001F01350D9261450DA22100EDF6E1200D6
:100AF000000E0001D06F000ED16F000ED26F000EFD
:100B0000CF6F04EC08F0FDEC07F0F5EC07F0F28C89
:100B1000F28EC50E136E000E146EBDEC07F0010EC2
:100B2000136E000E8FEC07F0010E136E010E8FECAA
:100B300007F0000E0AEC08F00001C46FD30E136E2C
:100B4000000E146E08EC04F00001D3A1F7D7EAEC14
:100B500007F00B0E0001D419D8B487D00C0ED419AD
:100B6000D8B483D00F0ED419D8A445D0D051D8A46E
:100B70001ED0C50E136E000E146ED1C015F0D20E2D
:100B8000166E000E176E9FEC06F00009D8B407EF42
:100B900000F00001D251CFEC07F00009D8B407EF04
:100BA00000F073EC07F0010E0001D06F1DD0D005EE
:100BB000D8A41AD0D251A8EC07F00009D8B407EF96
:100BC00000F00001D2050A0DF3CFCFF0C50E146E70
:100BD000000E156ED1C016F0CFC017F0F1EC06F084
:100BE0000009D8B407EF00F0C50E136E000E146EA6
:100BF000BDEC07F027D00E0ED419D8B436D00D0EA8
:100C0000D419D8A422D0D005D8A416D0D251A8EC9B
:100C100007F00009D8A410D00001D2050A0DF3CFC7
:100C2000CFF0D1C016F0C50E176E000E186ECF5162
:100C300056EC07F007EF00F0C50E136E000E146EB1
:100C4000BDEC07F0000E00010FD0D151010DC50E13
:100C5000F324D96E000EF420DA6ED4C0DFFFD12B5E
:100C60000A0ED16502D0000ED16FDEEC07F000094C
:100C7000D8B464D7FAD70600FACF01F0FBCF02F060
:100C8000E9CF03F0EACF04F0E1CF05F0E2CF06F0C0
:100C9000D9CF07F0DACF08F0F3CF09F0F4CF0AF09C
:100CA000F6CF0BF0F7CF0CF0F8CF0DF0F5CF0EF03C
:100CB00042C00FF043C010F044C011F045C012F024
:100CC000F2A008D0F2903C9E000E396ECD8081508B
:100CD000D8A400F09EA00DD0392A000ECF6E000ED1
:100CE000CE6E0A0E3918D8A403D03C8ECD903C8A23
:100CF0009E9012C045F011C044F010C043F00FC0E8
:100D000042F00EC0F5FF0DC0F8FF0CC0F7FF0BC09E
:100D1000F6FF0AC0F4FF09C0F3FF08C0DAFF07C0FE
:100D2000D9FF06C0E2FF05C0E1FF04C0EAFF03C02F
:100D3000E9FF02C0FBFF01C0FAFF42921100000E62
:100D40001A6E16C0D9FF17C0DAFF000EDF6E030E51
:100D5000156402D01A501200030E1518D8A41ED024
:100D600013C0D9FF14C0DAFF020EDE18D8A416D0C3
:100D700020EE01F01350D9261450DA22050EDE18A9
:100D8000D8A40CD020EE02F01350D9261450DA2249
:100D9000060EDE18D8A402D01A501200000E196EEA
:100DA00018D01950010DF3501324D96EF4501420AB
:100DB000DA6EDF50186E16C0D9FF17C0DAFFDF50A9
:100DC0000A0DF350182416C0D9FF17C0DAFFDF6EE2
:100DD000192A1550195CD8A0E4D7010E1A6E1A50C2
:100DE0001200000E216E17500AEC08F01F6E1F5003
:100DF0001618D8B404D018D0000E216E30D0000ED2
:100E0000206E15D014C0D9FF15C0DAFF172A17506D
:100E10000AEC08F0196EDE501918D8A405D0144A4F
:100E2000152A010E216E02D03B94E6D7202A2050CD
:100E3000186E196AFF0E1A6EFF0E1B6E16501C6E8E
:100E40001D6A1A501C261B501D2218501C5C1D5078
:100E5000800A1E6E1950800A1E58D8B0D3D7215070
:100E60001200200EF66E100EF76E000EF86E00EEF9
:100E70003DF010EE05F00900F5CFEEFFE550E15032
:100E8000FAE100EE60F0640EEE6AE806FDE100EEC5
:100E900022F01B0EEE6AE806FDE142904292000E3F
:100EA000F86E080EF76E000178EF05F0196E16C0A7
:100EB00013F019508FEC07F0000E1A6E0FD0192A9C
:100EC0001A50010DF3501724D96EF4501820DA6E21
:100ED000DF50136E19508FEC07F01A2A1A50165C67
:100EE000D8A01200ECD78980060E136E300EE82EC3
:100EF000FED7132EFCD700D08990030E136E980EE8
:100F0000E82EFED7132EFCD78980060E136E300E06
:100F1000E82EFED7132EFCD700D089901200146E55
:100F2000A6B2FED714C0A9FF13C0A8FFA684000E66
:100F3000F2BE010E156EF29E550EA76EAA0EA76E9A
:100F4000A68215B002D0F29E01D0F28EA6941200B5
:100F5000156E000E166E15040A0DF3CF17F017501C
:100F60000AEC08F0146E17500AEC08F00009D8B427
:100F700002D0010E166E16501200000E156E090EEC
:100F8000156401D012001550010DF3501324D96ED1
:100F9000F4501420DA6E000EDF6E152AF0D7146EAE
:100FA000000E136E1450D8B407D0160E146002D081
:100FB000010E01D0000E136E13501200170E136EA7
:100FC000000E146E08EC04F017A002D0010E1200FF
:100FD000000E120089801A0E136EF80EE82EFED74E
:100FE000132EFCD700D089901200CD88CD8A000E38
:100FF000CF6E000ECE6E9D801200F00E936EF00E3E
:101000008A6EF19EF28612000F0EC16E070EB46E4C
:1010100092901200136E13C0A9FFA680A850120070
:051020000800080004B7
:020000040020DA
:08000000FFFFFFFFFFFFFFFF00
:020000040030CA
:0E00000000081F1EFF8081FF0FC00FE00F40A1
:00000001FF
