:0400000007EF00F016
:0A0008004D82D4ED05F080EF06F004
:1008000000090807060504030201010203030900A9
:100810007F0E8A6E81B612D0000E146E050E136E16
:10082000A5EC06F0010E1B6E13D020EE01F019505E
:10083000D9261A50DA221BC0DFFF120081B40ED075
:10084000000E146E050E136EA5EC06F0020EEBD72B
:1008500019C0D9FF1AC0DAFFDF80E7D781B208D00C
:10086000000E146E050E136EA5EC06F0030EDBD71A
:1008700081B016D0000E146E050E136EA5EC06F0B6
:100880000A0E1B6E19C0D9FF1AC0DAFFDF8020EEF6
:1008900001F01950D9261A50DA221BC0DFFF1200CE
:1008A000BF0E8A6E81B612D0000E146E050E136E46
:1008B000A5EC06F0040E1B6E13D020EE01F01950CB
:1008C000D9261A50DA221BC0DFFF120081B40ED0E5
:1008D000000E146E050E136EA5EC06F0050EEBD798
:1008E00019C0D9FF1AC0DAFFDF80E7D781B208D07C
:1008F000000E146E050E136EA5EC06F0060EDBD787
:1009000081B016D0000E146E050E136EA5EC06F025
:100910000B0E1B6E19C0D9FF1AC0DAFFDF8020EE64
:1009200001F01950D9261A50DA221BC0DFFF12003D
:10093000DF0E8A6E81B612D0000E146E050E136E95
:10094000A5EC06F0070E1B6E13D020EE01F0195037
:10095000D9261A50DA221BC0DFFF120081B40ED054
:10096000000E146E050E136EA5EC06F0080EEBD704
:1009700019C0D9FF1AC0DAFFDF80E7D781B208D0EB
:10098000000E146E050E136EA5EC06F0090EDBD7F3
:1009900081B016D0000E146E050E136EA5EC06F095
:1009A0000C0E1B6E19C0D9FF1AC0DAFFDF8020EED3
:1009B00001F01950D9261A50DA221BC0DFFF1200AD
:1009C000EF0E8A6E81B616D0000E146E050E136EF1
:1009D000A5EC06F00D0E1B6E19C0D9FF1AC0DAFF88
:1009E000DF8020EE01F01950D9261A50DA221BC000
:1009F000DFFF120081B416D0000E146E050E136EC8
:100A0000A5EC06F0000E1B6E19C0D9FF1AC0DAFF64
:100A1000DF8020EE01F01950D9261A50DA221BC0CF
:100A2000DFFF120081B216D0000E146E050E136E99
:100A3000A5EC06F00F0E1B6E19C0D9FF1AC0DAFF25
:100A4000DF8020EE01F01950D9261A50DA221BC09F
:100A5000DFFF120081B016D0000E146E050E136E6B
:100A6000A5EC06F00E0E1B6E19C0D9FF1AC0DAFFF6
:100A7000DF8020EE01F01950D9261A50DA221BC06F
:100A8000DFFF120019C0D9FF1AC0DAFFDF9020EE95
:100A900001F01950D9261A50DA22100EDF6E12001A
:100AA000000E276E000E296E000E2A6E000E266EB6
:100AB00030EC07F021EC07F019EC07F0F28CF28E25
:100AC000000E286E090E286401D00CD02850010DAC
:100AD0001C0EF324D96E000EF420DA6E000EDF6EC9
:100AE000282AF0D72B0E196E000E1A6E08EC04F0AF
:100AF0002BA0F8D70B0E2C18D8B4F4D70C0E2C184A
:100B0000D8B4F0D70F0E2C18D8A41DD02750D8A4D5
:100B1000E9D71C0E136E000E146E29C015F02A0EB4
:100B2000166E000E176E38EC06F00009D8B407EF09
:100B300000F02A500AEC07F00009D8B407EF00F0E3
:100B4000010E276ECFD70E0E2C18D8B4CBD70D0EB2
:100B50002C18D8A418D02704D8A4C4D72A50F9EC4C
:100B600006F00009D8A4BED72A040A0DF3CF26F058
:100B700029C016F01C0E176E000E186E2650C3EC1E
:100B800006F007EF00F02950010D1C0EF324D96E7A
:100B9000000EF420DA6E2CC0DFFF292A0A0E296429
:100BA000A1D7000E296E9ED70600FACF01F0FBCF29
:100BB00002F0E9CF03F0EACF04F0E1CF05F0E2CF95
:100BC00006F0D9CF07F0DACF08F0F3CF09F0F4CF71
:100BD0000AF0F6CF0BF0F7CF0CF0F8CF0DF0F5CF11
:100BE0000EF04DC00FF04EC010F04FC011F050C0CD
:100BF00012F0F2A008D0F290479E000E446ECD8015
:100C00008150D8A400F09EA00DD0442A000ECF6ED3
:100C1000000ECE6E0A0E4418D8A403D0478ECD9095
:100C2000478A9E9012C050F011C04FF010C04EF095
:100C30000FC04DF00EC0F5FF0DC0F8FF0CC0F7FF60
:100C40000BC0F6FF0AC0F4FF09C0F3FF08C0DAFFCB
:100C500007C0D9FF06C0E2FF05C0E1FF04C0EAFFFC
:100C600003C0E9FF02C0FBFF01C0FAFF4D92110073
:100C7000000E1B6E16C0D9FF17C0DAFF000EDF6E24
:100C8000030E156402D01B501200030E1518D8A4D1
:100C90001ED013C0D9FF14C0DAFF020EDE18D8A48C
:100CA00016D020EE01F01350D9261450DA22050E8A
:100CB000DE18D8A40CD020EE02F01350D926145020
:100CC000DA22060EDE18D8A402D01B501200000E45
:100CD000196E15041A6E1950010DF3501324D96EB4
:100CE000F4501420DA6EDF501A02F3500A0D16C0C9
:100CF000D9FF17C0DAFFF350DF26192A1A06EBD7FF
:100D00005A0EF66E0E0EF76E000EF86E00EE48F0FC
:100D100010EE05F00900F5CFEEFFE550E150FAE1E5
:100D200000EE60F0640EEE6AE806FDE100EE2DF0E4
:100D30001B0EEE6AE806FDE14D904D92000EF86E36
:100D4000080EF76E000150EF05F0000E166E000E53
:100D5000156E16BE06D0880E155C130E1658D8B048
:100D60001200000E186E000E176E18BE06D0185036
:100D700007E1020E175CD8B003D0174A182AF5D73E
:100D8000154A162AE6D7196E16C013F01950E0EC72
:100D900006F0000E1A6E0FD0192A1A50010DF350EA
:100DA0001724D96EF4501820DA6EDF50136E1950E4
:100DB000E0EC06F01A2A1A50165CD8A01200ECD704
:100DC000146EA6B2FED714C0A9FF13C0A8FFA68454
:100DD000000EF2BE010E156EF29E550EA76EAA0E03
:100DE000A76EA68215B002D0F29E01D0F28EA69414
:100DF0001200146E000E166E14040A0DF3CF15F0D7
:100E0000155027EC07F00009D8B402D0010E166E79
:100E100016501200146E000E136E1450D8B407D082
:100E2000160E146002D0010E01D0000E136E135086
:100E30001200CD88CD8A000ECF6E000ECE6E9D8042
:100E400012000F0E936E8A68F19EF2861200136EE6
:0F0E500013C0A9FFA680A85012000800080004D4
:020E600012007E
:020000040020DA
:08000000FFFFFFFFFFFFFFFF00
:020000040030CA
:0E00000000081F1EFF8081FF0FC00FE00F40A1
:00000001FF
